{
  "_format": "hh-sol-artifact-1",
  "contractName": "SocialFi",
  "sourceName": "contracts/socialfi/SocialFi.sol",
  "abi": [
    {
      "inputs": [
        {
          "internalType": "string",
          "name": "initBaseURI",
          "type": "string"
        },
        {
          "internalType": "address",
          "name": "signer",
          "type": "address"
        },
        {
          "internalType": "uint256",
          "name": "_maxBatchSize",
          "type": "uint256"
        },
        {
          "internalType": "uint256",
          "name": "_collectionSize",
          "type": "uint256"
        },
        {
          "internalType": "uint256",
          "name": "_reserveAmount",
          "type": "uint256"
        }
      ],
      "stateMutability": "nonpayable",
      "type": "constructor"
    },
    {
      "anonymous": false,
      "inputs": [
        {
          "indexed": true,
          "internalType": "address",
          "name": "owner",
          "type": "address"
        },
        {
          "indexed": true,
          "internalType": "address",
          "name": "approved",
          "type": "address"
        },
        {
          "indexed": true,
          "internalType": "uint256",
          "name": "tokenId",
          "type": "uint256"
        }
      ],
      "name": "Approval",
      "type": "event"
    },
    {
      "anonymous": false,
      "inputs": [
        {
          "indexed": true,
          "internalType": "address",
          "name": "owner",
          "type": "address"
        },
        {
          "indexed": true,
          "internalType": "address",
          "name": "operator",
          "type": "address"
        },
        {
          "indexed": false,
          "internalType": "bool",
          "name": "approved",
          "type": "bool"
        }
      ],
      "name": "ApprovalForAll",
      "type": "event"
    },
    {
      "anonymous": false,
      "inputs": [
        {
          "indexed": false,
          "internalType": "string",
          "name": "newBaseURI",
          "type": "string"
        }
      ],
      "name": "BaseURIChanged",
      "type": "event"
    },
    {
      "anonymous": false,
      "inputs": [
        {
          "indexed": false,
          "internalType": "address",
          "name": "minter",
          "type": "address"
        },
        {
          "indexed": false,
          "internalType": "uint256",
          "name": "amount",
          "type": "uint256"
        }
      ],
      "name": "Minted",
      "type": "event"
    },
    {
      "anonymous": false,
      "inputs": [
        {
          "indexed": true,
          "internalType": "address",
          "name": "previousOwner",
          "type": "address"
        },
        {
          "indexed": true,
          "internalType": "address",
          "name": "newOwner",
          "type": "address"
        }
      ],
      "name": "OwnershipTransferred",
      "type": "event"
    },
    {
      "anonymous": false,
      "inputs": [
        {
          "indexed": false,
          "internalType": "address",
          "name": "minter",
          "type": "address"
        },
        {
          "indexed": false,
          "internalType": "address",
          "name": "recipient",
          "type": "address"
        },
        {
          "indexed": false,
          "internalType": "uint256",
          "name": "amount",
          "type": "uint256"
        }
      ],
      "name": "ReservedToken",
      "type": "event"
    },
    {
      "anonymous": false,
      "inputs": [
        {
          "indexed": false,
          "internalType": "address",
          "name": "signer",
          "type": "address"
        }
      ],
      "name": "SignerChanged",
      "type": "event"
    },
    {
      "anonymous": false,
      "inputs": [
        {
          "indexed": false,
          "internalType": "enum ISocialFi.State",
          "name": "state",
          "type": "uint8"
        }
      ],
      "name": "StatusChanged",
      "type": "event"
    },
    {
      "anonymous": false,
      "inputs": [
        {
          "indexed": true,
          "internalType": "address",
          "name": "from",
          "type": "address"
        },
        {
          "indexed": true,
          "internalType": "address",
          "name": "to",
          "type": "address"
        },
        {
          "indexed": true,
          "internalType": "uint256",
          "name": "tokenId",
          "type": "uint256"
        }
      ],
      "name": "Transfer",
      "type": "event"
    },
    {
      "inputs": [],
      "name": "PRICE",
      "outputs": [
        {
          "internalType": "uint256",
          "name": "",
          "type": "uint256"
        }
      ],
      "stateMutability": "view",
      "type": "function"
    },
    {
      "inputs": [
        {
          "internalType": "address",
          "name": "to",
          "type": "address"
        },
        {
          "internalType": "uint256",
          "name": "tokenId",
          "type": "uint256"
        }
      ],
      "name": "approve",
      "outputs": [],
      "stateMutability": "nonpayable",
      "type": "function"
    },
    {
      "inputs": [
        {
          "internalType": "address",
          "name": "owner",
          "type": "address"
        }
      ],
      "name": "balanceOf",
      "outputs": [
        {
          "internalType": "uint256",
          "name": "",
          "type": "uint256"
        }
      ],
      "stateMutability": "view",
      "type": "function"
    },
    {
      "inputs": [],
      "name": "balanceWithdrawn",
      "outputs": [
        {
          "internalType": "bool",
          "name": "",
          "type": "bool"
        }
      ],
      "stateMutability": "view",
      "type": "function"
    },
    {
      "inputs": [],
      "name": "baseURI",
      "outputs": [
        {
          "internalType": "string",
          "name": "",
          "type": "string"
        }
      ],
      "stateMutability": "view",
      "type": "function"
    },
    {
      "inputs": [
        {
          "internalType": "uint256",
          "name": "tokenId",
          "type": "uint256"
        }
      ],
      "name": "getApproved",
      "outputs": [
        {
          "internalType": "address",
          "name": "",
          "type": "address"
        }
      ],
      "stateMutability": "view",
      "type": "function"
    },
    {
      "inputs": [
        {
          "internalType": "uint256",
          "name": "tokenId",
          "type": "uint256"
        }
      ],
      "name": "getOwnershipData",
      "outputs": [
        {
          "components": [
            {
              "internalType": "address",
              "name": "addr",
              "type": "address"
            },
            {
              "internalType": "uint64",
              "name": "startTimestamp",
              "type": "uint64"
            }
          ],
          "internalType": "struct ERC721A.TokenOwnership",
          "name": "",
          "type": "tuple"
        }
      ],
      "stateMutability": "view",
      "type": "function"
    },
    {
      "inputs": [
        {
          "internalType": "address",
          "name": "owner",
          "type": "address"
        },
        {
          "internalType": "address",
          "name": "operator",
          "type": "address"
        }
      ],
      "name": "isApprovedForAll",
      "outputs": [
        {
          "internalType": "bool",
          "name": "",
          "type": "bool"
        }
      ],
      "stateMutability": "view",
      "type": "function"
    },
    {
      "inputs": [],
      "name": "maxMint",
      "outputs": [
        {
          "internalType": "uint256",
          "name": "",
          "type": "uint256"
        }
      ],
      "stateMutability": "view",
      "type": "function"
    },
    {
      "inputs": [],
      "name": "maxSupply",
      "outputs": [
        {
          "internalType": "uint256",
          "name": "",
          "type": "uint256"
        }
      ],
      "stateMutability": "view",
      "type": "function"
    },
    {
      "inputs": [],
      "name": "mint",
      "outputs": [],
      "stateMutability": "payable",
      "type": "function"
    },
    {
      "inputs": [],
      "name": "name",
      "outputs": [
        {
          "internalType": "string",
          "name": "",
          "type": "string"
        }
      ],
      "stateMutability": "view",
      "type": "function"
    },
    {
      "inputs": [],
      "name": "nextOwnerToExplicitlySet",
      "outputs": [
        {
          "internalType": "uint256",
          "name": "",
          "type": "uint256"
        }
      ],
      "stateMutability": "view",
      "type": "function"
    },
    {
      "inputs": [
        {
          "internalType": "address",
          "name": "owner",
          "type": "address"
        }
      ],
      "name": "numberMinted",
      "outputs": [
        {
          "internalType": "uint256",
          "name": "",
          "type": "uint256"
        }
      ],
      "stateMutability": "view",
      "type": "function"
    },
    {
      "inputs": [],
      "name": "owner",
      "outputs": [
        {
          "internalType": "address",
          "name": "",
          "type": "address"
        }
      ],
      "stateMutability": "view",
      "type": "function"
    },
    {
      "inputs": [
        {
          "internalType": "uint256",
          "name": "tokenId",
          "type": "uint256"
        }
      ],
      "name": "ownerOf",
      "outputs": [
        {
          "internalType": "address",
          "name": "",
          "type": "address"
        }
      ],
      "stateMutability": "view",
      "type": "function"
    },
    {
      "inputs": [
        {
          "internalType": "uint256",
          "name": "amount",
          "type": "uint256"
        },
        {
          "internalType": "string",
          "name": "salt",
          "type": "string"
        },
        {
          "internalType": "bytes",
          "name": "token",
          "type": "bytes"
        }
      ],
      "name": "presaleMint",
      "outputs": [],
      "stateMutability": "payable",
      "type": "function"
    },
    {
      "inputs": [
        {
          "internalType": "address",
          "name": "",
          "type": "address"
        }
      ],
      "name": "publicMinted",
      "outputs": [
        {
          "internalType": "bool",
          "name": "",
          "type": "bool"
        }
      ],
      "stateMutability": "view",
      "type": "function"
    },
    {
      "inputs": [],
      "name": "renounceOwnership",
      "outputs": [],
      "stateMutability": "nonpayable",
      "type": "function"
    },
    {
      "inputs": [
        {
          "internalType": "address",
          "name": "recipient",
          "type": "address"
        },
        {
          "internalType": "uint256",
          "name": "amount",
          "type": "uint256"
        }
      ],
      "name": "reserve",
      "outputs": [],
      "stateMutability": "nonpayable",
      "type": "function"
    },
    {
      "inputs": [],
      "name": "reserveAmount",
      "outputs": [
        {
          "internalType": "uint256",
          "name": "",
          "type": "uint256"
        }
      ],
      "stateMutability": "view",
      "type": "function"
    },
    {
      "inputs": [
        {
          "internalType": "address",
          "name": "from",
          "type": "address"
        },
        {
          "internalType": "address",
          "name": "to",
          "type": "address"
        },
        {
          "internalType": "uint256",
          "name": "tokenId",
          "type": "uint256"
        }
      ],
      "name": "safeTransferFrom",
      "outputs": [],
      "stateMutability": "nonpayable",
      "type": "function"
    },
    {
      "inputs": [
        {
          "internalType": "address",
          "name": "from",
          "type": "address"
        },
        {
          "internalType": "address",
          "name": "to",
          "type": "address"
        },
        {
          "internalType": "uint256",
          "name": "tokenId",
          "type": "uint256"
        },
        {
          "internalType": "bytes",
          "name": "_data",
          "type": "bytes"
        }
      ],
      "name": "safeTransferFrom",
      "outputs": [],
      "stateMutability": "nonpayable",
      "type": "function"
    },
    {
      "inputs": [
        {
          "internalType": "address",
          "name": "operator",
          "type": "address"
        },
        {
          "internalType": "bool",
          "name": "approved",
          "type": "bool"
        }
      ],
      "name": "setApprovalForAll",
      "outputs": [],
      "stateMutability": "nonpayable",
      "type": "function"
    },
    {
      "inputs": [
        {
          "internalType": "string",
          "name": "newBaseURI",
          "type": "string"
        }
      ],
      "name": "setBaseURI",
      "outputs": [],
      "stateMutability": "nonpayable",
      "type": "function"
    },
    {
      "inputs": [
        {
          "internalType": "uint256",
          "name": "quantity",
          "type": "uint256"
        }
      ],
      "name": "setOwnersExplicit",
      "outputs": [],
      "stateMutability": "nonpayable",
      "type": "function"
    },
    {
      "inputs": [
        {
          "internalType": "address",
          "name": "signer",
          "type": "address"
        }
      ],
      "name": "setSigner",
      "outputs": [],
      "stateMutability": "nonpayable",
      "type": "function"
    },
    {
      "inputs": [
        {
          "internalType": "enum ISocialFi.State",
          "name": "_state",
          "type": "uint8"
        }
      ],
      "name": "setStatus",
      "outputs": [],
      "stateMutability": "nonpayable",
      "type": "function"
    },
    {
      "inputs": [],
      "name": "state",
      "outputs": [
        {
          "internalType": "enum ISocialFi.State",
          "name": "",
          "type": "uint8"
        }
      ],
      "stateMutability": "view",
      "type": "function"
    },
    {
      "inputs": [
        {
          "internalType": "bytes4",
          "name": "interfaceId",
          "type": "bytes4"
        }
      ],
      "name": "supportsInterface",
      "outputs": [
        {
          "internalType": "bool",
          "name": "",
          "type": "bool"
        }
      ],
      "stateMutability": "view",
      "type": "function"
    },
    {
      "inputs": [],
      "name": "symbol",
      "outputs": [
        {
          "internalType": "string",
          "name": "",
          "type": "string"
        }
      ],
      "stateMutability": "view",
      "type": "function"
    },
    {
      "inputs": [
        {
          "internalType": "uint256",
          "name": "index",
          "type": "uint256"
        }
      ],
      "name": "tokenByIndex",
      "outputs": [
        {
          "internalType": "uint256",
          "name": "",
          "type": "uint256"
        }
      ],
      "stateMutability": "view",
      "type": "function"
    },
    {
      "inputs": [
        {
          "internalType": "address",
          "name": "owner",
          "type": "address"
        },
        {
          "internalType": "uint256",
          "name": "index",
          "type": "uint256"
        }
      ],
      "name": "tokenOfOwnerByIndex",
      "outputs": [
        {
          "internalType": "uint256",
          "name": "",
          "type": "uint256"
        }
      ],
      "stateMutability": "view",
      "type": "function"
    },
    {
      "inputs": [
        {
          "internalType": "uint256",
          "name": "tokenId",
          "type": "uint256"
        }
      ],
      "name": "tokenURI",
      "outputs": [
        {
          "internalType": "string",
          "name": "",
          "type": "string"
        }
      ],
      "stateMutability": "view",
      "type": "function"
    },
    {
      "inputs": [],
      "name": "tokensReserved",
      "outputs": [
        {
          "internalType": "uint256",
          "name": "",
          "type": "uint256"
        }
      ],
      "stateMutability": "view",
      "type": "function"
    },
    {
      "inputs": [],
      "name": "totalSupply",
      "outputs": [
        {
          "internalType": "uint256",
          "name": "",
          "type": "uint256"
        }
      ],
      "stateMutability": "view",
      "type": "function"
    },
    {
      "inputs": [
        {
          "internalType": "address",
          "name": "from",
          "type": "address"
        },
        {
          "internalType": "address",
          "name": "to",
          "type": "address"
        },
        {
          "internalType": "uint256",
          "name": "tokenId",
          "type": "uint256"
        }
      ],
      "name": "transferFrom",
      "outputs": [],
      "stateMutability": "nonpayable",
      "type": "function"
    },
    {
      "inputs": [
        {
          "internalType": "address",
          "name": "newOwner",
          "type": "address"
        }
      ],
      "name": "transferOwnership",
      "outputs": [],
      "stateMutability": "nonpayable",
      "type": "function"
    },
    {
      "inputs": [],
      "name": "withdraw",
      "outputs": [],
      "stateMutability": "nonpayable",
      "type": "function"
    }
  ],
  "bytecode": "0x6101206040526000805560006007553480156200001b57600080fd5b506040516200430b3803806200430b8339810160408190526200003e9162000305565b6040518060400160405280600381526020016253464960e81b8152506040518060400160405280600381526020016253464960e81b815250848460008111620000e55760405162461bcd60e51b815260206004820152602e60248201527f455243373231413a20636f6c6c656374696f6e206d757374206861766520612060448201526d6e6f6e7a65726f20737570706c7960901b60648201526084015b60405180910390fd5b60008211620001475760405162461bcd60e51b815260206004820152602760248201527f455243373231413a206d61782062617463682073697a65206d757374206265206044820152666e6f6e7a65726f60c81b6064820152608401620000dc565b83516200015c9060019060208701906200022c565b508251620001729060029060208601906200022c565b5060a091909152608052506200018a905033620001da565b60016009558451620001a490600b9060208801906200022c565b50600c80546001600160a01b0319166001600160a01b03959095169490941790935560c09190915260e05261010052506200044e565b600880546001600160a01b038381166001600160a01b0319831681179093556040519116919082907f8be0079c531659141344cd1fd0a4f28419497f9722a3daafe3b4186f6b6457e090600090a35050565b8280546200023a9062000411565b90600052602060002090601f0160209004810192826200025e5760008555620002a9565b82601f106200027957805160ff1916838001178555620002a9565b82800160010185558215620002a9579182015b82811115620002a95782518255916020019190600101906200028c565b50620002b7929150620002bb565b5090565b5b80821115620002b75760008155600101620002bc565b634e487b7160e01b600052604160045260246000fd5b80516001600160a01b03811681146200030057600080fd5b919050565b600080600080600060a086880312156200031e57600080fd5b85516001600160401b03808211156200033657600080fd5b818801915088601f8301126200034b57600080fd5b815181811115620003605762000360620002d2565b604051601f8201601f19908116603f011681019083821181831017156200038b576200038b620002d2565b81604052828152602093508b84848701011115620003a857600080fd5b600091505b82821015620003cc5784820184015181830185015290830190620003ad565b82821115620003de5760008484830101525b9850620003f0915050888201620002e8565b604089015160608a01516080909a0151989b919a5098979650945050505050565b600181811c908216806200042657607f821691505b602082108114156200044857634e487b7160e01b600052602260045260246000fd5b50919050565b60805160a05160c05160e05161010051613e1d620004ee6000396000818161048a01528181610cb301528181611c1b0152611fc701526000818161072d01528181610c8f0152611fa30152600081816105a20152611f34015260008181611c8701528181611cee01528181611d2601528181612946015281816129700152612f84015260008181611b8f0152818161272101526127530152613e1d6000f3fe6080604052600436106102a05760003560e01c80636c0360eb1161016e578063b88d4fde116100cb578063d5abeb011161007f578063dc33e68111610064578063dc33e68114610765578063e985e9c514610785578063f2fde38b146107ce57600080fd5b8063d5abeb011461071b578063d7224ba01461074f57600080fd5b8063c87b56dd116100b0578063c87b56dd146106c8578063cc47a40b146106e8578063d00e3a531461070857600080fd5b8063b88d4fde14610681578063c19d93fb146106a157600080fd5b80638d859f3e116101225780639231ab2a116101075780639231ab2a146105fe57806395d89b411461064c578063a22cb4651461066157600080fd5b80638d859f3e146105c45780638da5cb5b146105e057600080fd5b806370a082311161015357806370a082311461055b578063715018a61461057b5780637501f7411461059057600080fd5b80636c0360eb146105265780636c19e7831461053b57600080fd5b80632e49d78b1161021c5780634b09b72a116101d057806355f804b3116101b557806355f804b3146104cc5780636352211e146104ec578063647219981461050c57600080fd5b80634b09b72a146104785780634f6ccce7146104ac57600080fd5b80633ccfd60b116102015780633ccfd60b1461042d57806342842e0e14610442578063433adb051461046257600080fd5b80632e49d78b146103ed5780632f745c591461040d57600080fd5b80631015805b1161027357806318160ddd1161025857806318160ddd1461038e57806323b872dd146103ad5780632d20fb60146103cd57600080fd5b80631015805b146103565780631249c58b1461038657600080fd5b806301ffc9a7146102a557806306fdde03146102da578063081812fc146102fc578063095ea7b314610334575b600080fd5b3480156102b157600080fd5b506102c56102c03660046136a5565b6107ee565b60405190151581526020015b60405180910390f35b3480156102e657600080fd5b506102ef6108bf565b6040516102d1919061371a565b34801561030857600080fd5b5061031c61031736600461372d565b610951565b6040516001600160a01b0390911681526020016102d1565b34801561034057600080fd5b5061035461034f366004613762565b6109f1565b005b34801561036257600080fd5b506102c561037136600461378c565b600f6020526000908152604090205460ff1681565b610354610b24565b34801561039a57600080fd5b506000545b6040519081526020016102d1565b3480156103b957600080fd5b506103546103c83660046137a7565b610dc2565b3480156103d957600080fd5b506103546103e836600461372d565b610dcd565b3480156103f957600080fd5b506103546104083660046137e3565b610e90565b34801561041957600080fd5b5061039f610428366004613762565b610f48565b34801561043957600080fd5b506103546110e0565b34801561044e57600080fd5b5061035461045d3660046137a7565b611490565b34801561046e57600080fd5b5061039f600d5481565b34801561048457600080fd5b5061039f7f000000000000000000000000000000000000000000000000000000000000000081565b3480156104b857600080fd5b5061039f6104c736600461372d565b6114ab565b3480156104d857600080fd5b506103546104e7366004613846565b611527565b3480156104f857600080fd5b5061031c61050736600461372d565b6115cb565b34801561051857600080fd5b50600e546102c59060ff1681565b34801561053257600080fd5b506102ef6115dd565b34801561054757600080fd5b5061035461055636600461378c565b61166b565b34801561056757600080fd5b5061039f61057636600461378c565b611720565b34801561058757600080fd5b506103546117c3565b34801561059c57600080fd5b5061039f7f000000000000000000000000000000000000000000000000000000000000000081565b3480156105d057600080fd5b5061039f6701bc16d674ec800081565b3480156105ec57600080fd5b506008546001600160a01b031661031c565b34801561060a57600080fd5b5061061e61061936600461372d565b611829565b6040805182516001600160a01b0316815260209283015167ffffffffffffffff1692810192909252016102d1565b34801561065857600080fd5b506102ef611846565b34801561066d57600080fd5b5061035461067c366004613888565b611855565b34801561068d57600080fd5b5061035461069c3660046138da565b61191a565b3480156106ad57600080fd5b50600a546106bb9060ff1681565b6040516102d191906139cc565b3480156106d457600080fd5b506102ef6106e336600461372d565b6119a9565b3480156106f457600080fd5b50610354610703366004613762565b611a84565b6103546107163660046139f4565b611dc2565b34801561072757600080fd5b5061039f7f000000000000000000000000000000000000000000000000000000000000000081565b34801561075b57600080fd5b5061039f60075481565b34801561077157600080fd5b5061039f61078036600461378c565b6120c9565b34801561079157600080fd5b506102c56107a0366004613a6e565b6001600160a01b03918216600090815260066020908152604080832093909416825291909152205460ff1690565b3480156107da57600080fd5b506103546107e936600461378c565b6120d4565b60006001600160e01b031982167f80ac58cd00000000000000000000000000000000000000000000000000000000148061085157506001600160e01b031982167f5b5e139f00000000000000000000000000000000000000000000000000000000145b8061088557506001600160e01b031982167f780e9d6300000000000000000000000000000000000000000000000000000000145b806108b957507f01ffc9a7000000000000000000000000000000000000000000000000000000006001600160e01b03198316145b92915050565b6060600180546108ce90613aa1565b80601f01602080910402602001604051908101604052809291908181526020018280546108fa90613aa1565b80156109475780601f1061091c57610100808354040283529160200191610947565b820191906000526020600020905b81548152906001019060200180831161092a57829003601f168201915b5050505050905090565b600061095e826000541190565b6109d55760405162461bcd60e51b815260206004820152602d60248201527f455243373231413a20617070726f76656420717565727920666f72206e6f6e6560448201527f78697374656e7420746f6b656e0000000000000000000000000000000000000060648201526084015b60405180910390fd5b506000908152600560205260409020546001600160a01b031690565b60006109fc826115cb565b9050806001600160a01b0316836001600160a01b03161415610a865760405162461bcd60e51b815260206004820152602260248201527f455243373231413a20617070726f76616c20746f2063757272656e74206f776e60448201527f657200000000000000000000000000000000000000000000000000000000000060648201526084016109cc565b336001600160a01b0382161480610aa25750610aa281336107a0565b610b145760405162461bcd60e51b815260206004820152603960248201527f455243373231413a20617070726f76652063616c6c6572206973206e6f74206f60448201527f776e6572206e6f7220617070726f76656420666f7220616c6c0000000000000060648201526084016109cc565b610b1f8383836121b6565b505050565b60408051808201909152600781527f73746174653d3d000000000000000000000000000000000000000000000000006020820152600a54610b79919060ff166003811115610b7457610b746139b6565b61221f565b6002600a5460ff166003811115610b9257610b926139b6565b146040518060400160405280601f81526020017f5346493a205075626c69632073616c65206973206e6f74206163746976652e0081525090610be75760405162461bcd60e51b81526004016109cc919061371a565b5060408051808201909152601981527f5346493a204e6f7420616c6c6f77656420746f206d696e742e000000000000006020820152323314610c3c5760405162461bcd60e51b81526004016109cc919061371a565b50336000908152600f602090815260409182902054825160608101909352603680845260ff909116159291613db29083013990610c8c5760405162461bcd60e51b81526004016109cc919061371a565b507f0000000000000000000000000000000000000000000000000000000000000000600d547f0000000000000000000000000000000000000000000000000000000000000000610cdb60005490565b610ce6906001613af2565b610cf09190613af2565b610cfa9190613b0a565b11156040518060400160405280601981526020017f5346493a206d617820737570706c792065786365656465642e0000000000000081525090610d505760405162461bcd60e51b81526004016109cc919061371a565b50610d5c336001612296565b336000908152600f60205260409020805460ff19166001179055610d876701bc16d674ec80006122b0565b60408051338152600160208201527f30385c845b448a36257a6a1716e6ad2e1bc2cbe333cde1e69fe849ad6511adfe910160405180910390a1565b610b1f8383836122ee565b6008546001600160a01b03163314610e275760405162461bcd60e51b815260206004820181905260248201527f4f776e61626c653a2063616c6c6572206973206e6f7420746865206f776e657260448201526064016109cc565b60026009541415610e7a5760405162461bcd60e51b815260206004820152601f60248201527f5265656e7472616e637947756172643a207265656e7472616e742063616c6c0060448201526064016109cc565b6002600955610e88816126b0565b506001600955565b6008546001600160a01b03163314610eea5760405162461bcd60e51b815260206004820181905260248201527f4f776e61626c653a2063616c6c6572206973206e6f7420746865206f776e657260448201526064016109cc565b600a805482919060ff19166001836003811115610f0957610f096139b6565b02179055507fafa725e7f44cadb687a7043853fa1a7e7b8f0da74ce87ec546e9420f04da8c1e81604051610f3d91906139cc565b60405180910390a150565b6000610f5383611720565b8210610fc75760405162461bcd60e51b815260206004820152602260248201527f455243373231413a206f776e657220696e646578206f7574206f6620626f756e60448201527f647300000000000000000000000000000000000000000000000000000000000060648201526084016109cc565b600080549080805b83811015611071576000818152600360209081526040918290208251808401909352546001600160a01b038116808452600160a01b90910467ffffffffffffffff16918301919091521561102257805192505b876001600160a01b0316836001600160a01b0316141561105e5786841415611050575093506108b992505050565b8361105a81613b21565b9450505b508061106981613b21565b915050610fcf565b5060405162461bcd60e51b815260206004820152602e60248201527f455243373231413a20756e61626c6520746f2067657420746f6b656e206f662060448201527f6f776e657220627920696e64657800000000000000000000000000000000000060648201526084016109cc565b600260095414156111335760405162461bcd60e51b815260206004820152601f60248201527f5265656e7472616e637947756172643a207265656e7472616e742063616c6c0060448201526064016109cc565b60026009556008546001600160a01b031633146111925760405162461bcd60e51b815260206004820181905260248201527f4f776e61626c653a2063616c6c6572206973206e6f7420746865206f776e657260448201526064016109cc565b6003600a5460ff1660038111156111ab576111ab6139b6565b146040518060400160405280601881526020017f5346493a204e6f742066696e69736865642073746174652e0000000000000000815250906112005760405162461bcd60e51b81526004016109cc919061371a565b50600e546040805160608101909152602880825260ff9092161591613d406020830139906112415760405162461bcd60e51b81526004016109cc919061371a565b50476704db7325476300006706f05b59d3b200006000816112628486613b0a565b61126c9190613b0a565b600e805460ff1916600117905560405190915060009073351a818e5d2556ec3fe8ba260c7ba43e5db3abd49085908381818185875af1925050503d80600081146112d2576040519150601f19603f3d011682016040523d82523d6000602084013e6112d7565b606091505b505060405190915060009073b9d3acd2d6651732b052d693337e5d02552b8a199085908381818185875af1925050503d8060008114611332576040519150601f19603f3d011682016040523d82523d6000602084013e611337565b606091505b5050604051909150600090737d4b7fb20dcdc550a6a2d436b8a14b7ba77be7d29085908381818185875af1925050503d8060008114611392576040519150601f19603f3d011682016040523d82523d6000602084013e611397565b606091505b50509050826113e85760405162461bcd60e51b815260206004820152601760248201527f5346493a205472616e736665722031206661696c65642e00000000000000000060448201526064016109cc565b816114355760405162461bcd60e51b815260206004820152601760248201527f5346493a205472616e736665722032206661696c65642e00000000000000000060448201526064016109cc565b806114825760405162461bcd60e51b815260206004820152601760248201527f5346493a205472616e736665722033206661696c65642e00000000000000000060448201526064016109cc565b505060016009555050505050565b610b1f8383836040518060200160405280600081525061191a565b6000805482106115235760405162461bcd60e51b815260206004820152602360248201527f455243373231413a20676c6f62616c20696e646578206f7574206f6620626f7560448201527f6e6473000000000000000000000000000000000000000000000000000000000060648201526084016109cc565b5090565b6008546001600160a01b031633146115815760405162461bcd60e51b815260206004820181905260248201527f4f776e61626c653a2063616c6c6572206973206e6f7420746865206f776e657260448201526064016109cc565b61158d600b83836135ff565b507f5411e8ebf1636d9e83d5fc4900bf80cbac82e8790da2a4c94db4895e889eedf682826040516115bf929190613b3c565b60405180910390a15050565b60006115d6826128b1565b5192915050565b600b80546115ea90613aa1565b80601f016020809104026020016040519081016040528092919081815260200182805461161690613aa1565b80156116635780601f1061163857610100808354040283529160200191611663565b820191906000526020600020905b81548152906001019060200180831161164657829003601f168201915b505050505081565b6008546001600160a01b031633146116c55760405162461bcd60e51b815260206004820181905260248201527f4f776e61626c653a2063616c6c6572206973206e6f7420746865206f776e657260448201526064016109cc565b600c805473ffffffffffffffffffffffffffffffffffffffff19166001600160a01b0383169081179091556040519081527f5719a5656c5cfdaafa148ecf366fd3b0a7fae06449ce2a46225977fb7417e29d90602001610f3d565b60006001600160a01b03821661179e5760405162461bcd60e51b815260206004820152602b60248201527f455243373231413a2062616c616e636520717565727920666f7220746865207a60448201527f65726f206164647265737300000000000000000000000000000000000000000060648201526084016109cc565b506001600160a01b03166000908152600460205260409020546001600160801b031690565b6008546001600160a01b0316331461181d5760405162461bcd60e51b815260206004820181905260248201527f4f776e61626c653a2063616c6c6572206973206e6f7420746865206f776e657260448201526064016109cc565b6118276000612a7c565b565b60408051808201909152600080825260208201526108b9826128b1565b6060600280546108ce90613aa1565b6001600160a01b0382163314156118ae5760405162461bcd60e51b815260206004820152601a60248201527f455243373231413a20617070726f766520746f2063616c6c657200000000000060448201526064016109cc565b3360008181526006602090815260408083206001600160a01b03871680855290835292819020805460ff191686151590811790915590519081529192917f17307eab39ab6107e8899845ad3d59bd9653f200f220920489ca2b5937696c31910160405180910390a35050565b6119258484846122ee565b61193184848484612adb565b6119a35760405162461bcd60e51b815260206004820152603360248201527f455243373231413a207472616e7366657220746f206e6f6e204552433732315260448201527f6563656976657220696d706c656d656e7465720000000000000000000000000060648201526084016109cc565b50505050565b60606119b6826000541190565b611a285760405162461bcd60e51b815260206004820152602f60248201527f4552433732314d657461646174613a2055524920717565727920666f72206e6f60448201527f6e6578697374656e7420746f6b656e000000000000000000000000000000000060648201526084016109cc565b6000611a32612c3f565b90506000815111611a525760405180602001604052806000815250611a7d565b80611a5c84612c4e565b604051602001611a6d929190613b6b565b6040516020818303038152906040525b9392505050565b6008546001600160a01b03163314611ade5760405162461bcd60e51b815260206004820181905260248201527f4f776e61626c653a2063616c6c6572206973206e6f7420746865206f776e657260448201526064016109cc565b60408051808201909152601e81527f5346493a206d696e7420746f20746865207a65726f20616464726573732e000060208201526001600160a01b038316611b395760405162461bcd60e51b81526004016109cc919061371a565b5060408051808201909152601a81527f5346493a2062616c616e63655f696e73756666696369656e742e000000000000602082015281611b8c5760405162461bcd60e51b81526004016109cc919061371a565b507f000000000000000000000000000000000000000000000000000000000000000081611bb860005490565b611bc29190613af2565b11156040518060400160405280601981526020017f5346493a206d617820737570706c792065786365656465642e0000000000000081525090611c185760405162461bcd60e51b81526004016109cc919061371a565b507f000000000000000000000000000000000000000000000000000000000000000081600d54611c489190613af2565b1115604051806060016040528060218152602001613d686021913990611c815760405162461bcd60e51b81526004016109cc919061371a565b50611cac7f000000000000000000000000000000000000000000000000000000000000000082613bb0565b600014604051806060016040528060268152602001613d1a6026913990611ce65760405162461bcd60e51b81526004016109cc919061371a565b506000611d137f000000000000000000000000000000000000000000000000000000000000000083613bc4565b905060005b81811015611d5c57611d4a847f0000000000000000000000000000000000000000000000000000000000000000612296565b80611d5481613b21565b915050611d18565b5081600d6000828254611d6f9190613af2565b9091555050604080513381526001600160a01b03851660208201529081018390527fd729ebd340be850113adba35e3218ac6bd77c375ce35c256e3493fdf30b99f3e9060600160405180910390a1505050565b6001600a5460ff166003811115611ddb57611ddb6139b6565b146040518060400160405280601b81526020017f5346493a2050726573616c65206973206e6f74206163746976652e000000000081525090611e305760405162461bcd60e51b81526004016109cc919061371a565b5060408051808201909152601981527f5346493a204e6f7420616c6c6f77656420746f206d696e742e000000000000006020820152323314611e855760405162461bcd60e51b81526004016109cc919061371a565b50611edd611e94858533612d80565b83838080601f01602080910402602001604051908101604052809392919081815260200183838082843760009201919091525050600c546001600160a01b03169150612db89050565b6040518060400160405280601781526020017f5346493a20696e76616c6964207369676e61747572652e00000000000000000081525090611f315760405162461bcd60e51b81526004016109cc919061371a565b507f000000000000000000000000000000000000000000000000000000000000000085611f5d336120c9565b611f679190613af2565b1115604051806060016040528060298152602001613d896029913990611fa05760405162461bcd60e51b81526004016109cc919061371a565b507f0000000000000000000000000000000000000000000000000000000000000000600d547f000000000000000000000000000000000000000000000000000000000000000087611ff060005490565b611ffa9190613af2565b6120049190613af2565b61200e9190613b0a565b11156040518060400160405280601981526020017f5346493a206d617820737570706c792065786365656465642e00000000000000815250906120645760405162461bcd60e51b81526004016109cc919061371a565b5061206f3386612296565b612089612084866701bc16d674ec8000613bd8565b6122b0565b60408051338152602081018790527f30385c845b448a36257a6a1716e6ad2e1bc2cbe333cde1e69fe849ad6511adfe910160405180910390a15050505050565b60006108b982612de0565b6008546001600160a01b0316331461212e5760405162461bcd60e51b815260206004820181905260248201527f4f776e61626c653a2063616c6c6572206973206e6f7420746865206f776e657260448201526064016109cc565b6001600160a01b0381166121aa5760405162461bcd60e51b815260206004820152602660248201527f4f776e61626c653a206e6577206f776e657220697320746865207a65726f206160448201527f646472657373000000000000000000000000000000000000000000000000000060648201526084016109cc565b6121b381612a7c565b50565b600082815260056020526040808220805473ffffffffffffffffffffffffffffffffffffffff19166001600160a01b0387811691821790925591518593918516917f8c5be1e5ebec7d5bd14f71427d1e84f3dd0314c0f7b2291e5b200ac8c7c3b92591a4505050565b6122928282604051602401612235929190613bf7565b60408051601f198184030181529190526020810180517bffffffffffffffffffffffffffffffffffffffffffffffffffffffff167f9710a9d000000000000000000000000000000000000000000000000000000000179052612e8a565b5050565b612292828260405180602001604052806000815250612eab565b803411156121b357336108fc6122c68334613b0a565b6040518115909202916000818181858888f19350505050158015612292573d6000803e3d6000fd5b60006122f9826128b1565b80519091506000906001600160a01b0316336001600160a01b0316148061233057503361232584610951565b6001600160a01b0316145b806123425750815161234290336107a0565b9050806123b75760405162461bcd60e51b815260206004820152603260248201527f455243373231413a207472616e736665722063616c6c6572206973206e6f742060448201527f6f776e6572206e6f7220617070726f766564000000000000000000000000000060648201526084016109cc565b846001600160a01b031682600001516001600160a01b0316146124425760405162461bcd60e51b815260206004820152602660248201527f455243373231413a207472616e736665722066726f6d20696e636f727265637460448201527f206f776e6572000000000000000000000000000000000000000000000000000060648201526084016109cc565b6001600160a01b0384166124be5760405162461bcd60e51b815260206004820152602560248201527f455243373231413a207472616e7366657220746f20746865207a65726f20616460448201527f647265737300000000000000000000000000000000000000000000000000000060648201526084016109cc565b6124ce60008484600001516121b6565b6001600160a01b03851660009081526004602052604081208054600192906125009084906001600160801b0316613c19565b82546101009290920a6001600160801b038181021990931691831602179091556001600160a01b0386166000908152600460205260408120805460019450909261254c91859116613c41565b82546001600160801b039182166101009390930a9283029190920219909116179055506040805180820182526001600160a01b03808716825267ffffffffffffffff428116602080850191825260008981526003909152948520935184549151909216600160a01b026001600160e01b031990911691909216171790556125d4846001613af2565b6000818152600360205260409020549091506001600160a01b0316612666576125fe816000541190565b156126665760408051808201825284516001600160a01b03908116825260208087015167ffffffffffffffff9081168285019081526000878152600390935294909120925183549451909116600160a01b026001600160e01b03199094169116179190911790555b83856001600160a01b0316876001600160a01b03167fddf252ad1be2c89b69c2b068fc378daa952ba7f163c4a11628f55a4df523b3ef60405160405180910390a45b505050505050565b600754816127005760405162461bcd60e51b815260206004820152601860248201527f7175616e74697479206d757374206265206e6f6e7a65726f000000000000000060448201526064016109cc565b6000600161270e8484613af2565b6127189190613b0a565b905061274560017f0000000000000000000000000000000000000000000000000000000000000000613b0a565b81111561277a5761277760017f0000000000000000000000000000000000000000000000000000000000000000613b0a565b90505b612785816000541190565b6127f75760405162461bcd60e51b815260206004820152602660248201527f6e6f7420656e6f756768206d696e7465642079657420666f722074686973206360448201527f6c65616e7570000000000000000000000000000000000000000000000000000060648201526084016109cc565b815b81811161289d576000818152600360205260409020546001600160a01b031661288b576000612827826128b1565b60408051808201825282516001600160a01b03908116825260209384015167ffffffffffffffff9081168584019081526000888152600390965293909420915182549351909416600160a01b026001600160e01b0319909316931692909217179055505b8061289581613b21565b9150506127f9565b506128a9816001613af2565b600755505050565b60408051808201909152600080825260208201526128d0826000541190565b6129425760405162461bcd60e51b815260206004820152602a60248201527f455243373231413a206f776e657220717565727920666f72206e6f6e6578697360448201527f74656e7420746f6b656e0000000000000000000000000000000000000000000060648201526084016109cc565b60007f000000000000000000000000000000000000000000000000000000000000000083106129a3576129957f000000000000000000000000000000000000000000000000000000000000000084613b0a565b6129a0906001613af2565b90505b825b818110612a0d576000818152600360209081526040918290208251808401909352546001600160a01b038116808452600160a01b90910467ffffffffffffffff1691830191909152156129fa57949350505050565b5080612a0581613c63565b9150506129a5565b5060405162461bcd60e51b815260206004820152602f60248201527f455243373231413a20756e61626c6520746f2064657465726d696e652074686560448201527f206f776e6572206f6620746f6b656e000000000000000000000000000000000060648201526084016109cc565b600880546001600160a01b0383811673ffffffffffffffffffffffffffffffffffffffff19831681179093556040519116919082907f8be0079c531659141344cd1fd0a4f28419497f9722a3daafe3b4186f6b6457e090600090a35050565b60006001600160a01b0384163b15612c3357604051630a85bd0160e11b81526001600160a01b0385169063150b7a0290612b1f903390899088908890600401613c7a565b602060405180830381600087803b158015612b3957600080fd5b505af1925050508015612b69575060408051601f3d908101601f19168201909252612b6691810190613cb6565b60015b612c19573d808015612b97576040519150601f19603f3d011682016040523d82523d6000602084013e612b9c565b606091505b508051612c115760405162461bcd60e51b815260206004820152603360248201527f455243373231413a207472616e7366657220746f206e6f6e204552433732315260448201527f6563656976657220696d706c656d656e7465720000000000000000000000000060648201526084016109cc565b805181602001fd5b6001600160e01b031916630a85bd0160e11b149050612c37565b5060015b949350505050565b6060600b80546108ce90613aa1565b606081612c8e57505060408051808201909152600181527f3000000000000000000000000000000000000000000000000000000000000000602082015290565b8160005b8115612cb85780612ca281613b21565b9150612cb19050600a83613bc4565b9150612c92565b60008167ffffffffffffffff811115612cd357612cd36138c4565b6040519080825280601f01601f191660200182016040528015612cfd576020820181803683370190505b5090505b8415612c3757612d12600183613b0a565b9150612d1f600a86613bb0565b612d2a906030613af2565b60f81b818381518110612d3f57612d3f613cd3565b60200101907effffffffffffffffffffffffffffffffffffffffffffffffffffffffffffff1916908160001a905350612d79600a86613bc4565b9450612d01565b600083833084604051602001612d999493929190613ce9565b6040516020818303038152906040528051906020012090509392505050565b6000816001600160a01b0316612dce8585613213565b6001600160a01b031614949350505050565b60006001600160a01b038216612e5e5760405162461bcd60e51b815260206004820152603160248201527f455243373231413a206e756d626572206d696e74656420717565727920666f7260448201527f20746865207a65726f206164647265737300000000000000000000000000000060648201526084016109cc565b506001600160a01b0316600090815260046020526040902054600160801b90046001600160801b031690565b80516a636f6e736f6c652e6c6f67602083016000808483855afa5050505050565b6000546001600160a01b038416612f2a5760405162461bcd60e51b815260206004820152602160248201527f455243373231413a206d696e7420746f20746865207a65726f2061646472657360448201527f730000000000000000000000000000000000000000000000000000000000000060648201526084016109cc565b612f35816000541190565b15612f825760405162461bcd60e51b815260206004820152601d60248201527f455243373231413a20746f6b656e20616c7265616479206d696e74656400000060448201526064016109cc565b7f00000000000000000000000000000000000000000000000000000000000000008311156130185760405162461bcd60e51b815260206004820152602260248201527f455243373231413a207175616e7469747920746f206d696e7420746f6f20686960448201527f676800000000000000000000000000000000000000000000000000000000000060648201526084016109cc565b6001600160a01b0384166000908152600460209081526040918290208251808401845290546001600160801b038082168352600160801b9091041691810191909152815180830190925280519091908190613074908790613c41565b6001600160801b031681526020018583602001516130929190613c41565b6001600160801b039081169091526001600160a01b0380881660008181526004602090815260408083208751978301518716600160801b0297909616969096179094558451808601865291825267ffffffffffffffff4281168386019081528883526003909552948120915182549451909516600160a01b026001600160e01b031990941694909216939093179190911790915582905b858110156132085760405182906001600160a01b038916906000907fddf252ad1be2c89b69c2b068fc378daa952ba7f163c4a11628f55a4df523b3ef908290a46131766000888488612adb565b6131e85760405162461bcd60e51b815260206004820152603360248201527f455243373231413a207472616e7366657220746f206e6f6e204552433732315260448201527f6563656976657220696d706c656d656e7465720000000000000000000000000060648201526084016109cc565b816131f281613b21565b925050808061320090613b21565b915050613129565b5060008190556126a8565b6000611a7d82613270856040517f19457468657265756d205369676e6564204d6573736167653a0a3332000000006020820152603c8101829052600090605c01604051602081830303815290604052805190602001209050919050565b9060008060006132808585613295565b9150915061328d81613305565b509392505050565b6000808251604114156132cc5760208301516040840151606085015160001a6132c0878285856134c0565b945094505050506132fe565b8251604014156132f657602083015160408401516132eb8683836135ad565b9350935050506132fe565b506000905060025b9250929050565b6000816004811115613319576133196139b6565b14156133225750565b6001816004811115613336576133366139b6565b14156133845760405162461bcd60e51b815260206004820152601860248201527f45434453413a20696e76616c6964207369676e6174757265000000000000000060448201526064016109cc565b6002816004811115613398576133986139b6565b14156133e65760405162461bcd60e51b815260206004820152601f60248201527f45434453413a20696e76616c6964207369676e6174757265206c656e6774680060448201526064016109cc565b60038160048111156133fa576133fa6139b6565b14156134535760405162461bcd60e51b815260206004820152602260248201527f45434453413a20696e76616c6964207369676e6174757265202773272076616c604482015261756560f01b60648201526084016109cc565b6004816004811115613467576134676139b6565b14156121b35760405162461bcd60e51b815260206004820152602260248201527f45434453413a20696e76616c6964207369676e6174757265202776272076616c604482015261756560f01b60648201526084016109cc565b6000807f7fffffffffffffffffffffffffffffff5d576e7357a4501ddfe92f46681b20a08311156134f757506000905060036135a4565b8460ff16601b1415801561350f57508460ff16601c14155b1561352057506000905060046135a4565b6040805160008082526020820180845289905260ff881692820192909252606081018690526080810185905260019060a0016020604051602081039080840390855afa158015613574573d6000803e3d6000fd5b5050604051601f1901519150506001600160a01b03811661359d576000600192509250506135a4565b9150600090505b94509492505050565b6000807f7fffffffffffffffffffffffffffffffffffffffffffffffffffffffffffffff8316816135e360ff86901c601b613af2565b90506135f1878288856134c0565b935093505050935093915050565b82805461360b90613aa1565b90600052602060002090601f01602090048101928261362d5760008555613673565b82601f106136465782800160ff19823516178555613673565b82800160010185558215613673579182015b82811115613673578235825591602001919060010190613658565b506115239291505b80821115611523576000815560010161367b565b6001600160e01b0319811681146121b357600080fd5b6000602082840312156136b757600080fd5b8135611a7d8161368f565b60005b838110156136dd5781810151838201526020016136c5565b838111156119a35750506000910152565b600081518084526137068160208601602086016136c2565b601f01601f19169290920160200192915050565b602081526000611a7d60208301846136ee565b60006020828403121561373f57600080fd5b5035919050565b80356001600160a01b038116811461375d57600080fd5b919050565b6000806040838503121561377557600080fd5b61377e83613746565b946020939093013593505050565b60006020828403121561379e57600080fd5b611a7d82613746565b6000806000606084860312156137bc57600080fd5b6137c584613746565b92506137d360208501613746565b9150604084013590509250925092565b6000602082840312156137f557600080fd5b813560048110611a7d57600080fd5b60008083601f84011261381657600080fd5b50813567ffffffffffffffff81111561382e57600080fd5b6020830191508360208285010111156132fe57600080fd5b6000806020838503121561385957600080fd5b823567ffffffffffffffff81111561387057600080fd5b61387c85828601613804565b90969095509350505050565b6000806040838503121561389b57600080fd5b6138a483613746565b9150602083013580151581146138b957600080fd5b809150509250929050565b634e487b7160e01b600052604160045260246000fd5b600080600080608085870312156138f057600080fd5b6138f985613746565b935061390760208601613746565b925060408501359150606085013567ffffffffffffffff8082111561392b57600080fd5b818701915087601f83011261393f57600080fd5b813581811115613951576139516138c4565b604051601f8201601f19908116603f01168101908382118183101715613979576139796138c4565b816040528281528a602084870101111561399257600080fd5b82602086016020830137600060208483010152809550505050505092959194509250565b634e487b7160e01b600052602160045260246000fd5b60208101600483106139ee57634e487b7160e01b600052602160045260246000fd5b91905290565b600080600080600060608688031215613a0c57600080fd5b85359450602086013567ffffffffffffffff80821115613a2b57600080fd5b613a3789838a01613804565b90965094506040880135915080821115613a5057600080fd5b50613a5d88828901613804565b969995985093965092949392505050565b60008060408385031215613a8157600080fd5b613a8a83613746565b9150613a9860208401613746565b90509250929050565b600181811c90821680613ab557607f821691505b60208210811415613ad657634e487b7160e01b600052602260045260246000fd5b50919050565b634e487b7160e01b600052601160045260246000fd5b60008219821115613b0557613b05613adc565b500190565b600082821015613b1c57613b1c613adc565b500390565b6000600019821415613b3557613b35613adc565b5060010190565b60208152816020820152818360408301376000818301604090810191909152601f909201601f19160101919050565b60008351613b7d8184602088016136c2565b835190830190613b918183602088016136c2565b01949350505050565b634e487b7160e01b600052601260045260246000fd5b600082613bbf57613bbf613b9a565b500690565b600082613bd357613bd3613b9a565b500490565b6000816000190483118215151615613bf257613bf2613adc565b500290565b604081526000613c0a60408301856136ee565b90508260208301529392505050565b60006001600160801b0383811690831681811015613c3957613c39613adc565b039392505050565b60006001600160801b03808316818516808303821115613b9157613b91613adc565b600081613c7257613c72613adc565b506000190190565b60006001600160a01b03808716835280861660208401525083604083015260806060830152613cac60808301846136ee565b9695505050505050565b600060208284031215613cc857600080fd5b8151611a7d8161368f565b634e487b7160e01b600052603260045260246000fd5b838582376bffffffffffffffffffffffff19606093841b811694909101938452911b16601482015260280191905056fe5346493a206e6f74206d756c7469706c65206f6620746865206d6178426174636853697a652e5346493a2042616c616e63652068617320616c7265616479206265656e2077697468647261776e2e5346493a206d6178207265736572766520616d6f756e742065786365656465642e5346493a204d6178206d696e7420616d6f756e74207065722077616c6c65742065786365656465642e5346493a205468652077616c6c65742068617320616c7265616479206d696e74656420647572696e67207075626c69632073616c652ea2646970667358221220ae44c81bea042c68302e04c5753635d1f7469d6a56957ec0d2785a2588aaeaf964736f6c63430008080033",
  "linkReferences": {},
  "deployedLinkReferences": {}
}